:100000000C9446000C9465000C9465000C946500FB
:100010000C9465000C9465000C9465000C946500CC
:100020000C9465000C9465000C9465000C946500BC
:100030000C9465000C94A0010C9465000C94650070
:100040000C9465000C9465000C9465000C9465009C
:100050000C9465000C9465000C9465000C9465008C
:100060000C9465000C9465000C9465000C9465007C
:100070000C9465000C9465000C9465000C9465006C
:100080000C9465000C9465000C94650011241FBE4F
:10009000CFEFD0E4DEBFCDBF11E0A0E0B1E0EEE4F1
:1000A000F3E100E00BBF02C007900D92A039B10749
:1000B000D9F721E0A0E9B1E001C01D92AD3DB20742
:1000C000E1F70E9448060C94A5090C940000CF9318
:1000D000DF9300D01F92CDB7DEB789837B836A831D
:1000E00089818A3031F48A819B81BC018DE00E9434
:1000F000670080EC90E0FC018081882F90E08072A6
:100100009927892BB1F386EC90E02981FC012083AB
:1001100080E090E00F900F900F90DF91CF910895C5
:10012000CF93DF9300D01F92CDB7DEB789836A8368
:100130004B838B81882371F08A81282F30E081E006
:1001400090E002C0880F991F2A95E2F7982F8981C5
:10015000892B0EC08A81282F30E081E090E002C018
:10016000880F991F2A95E2F7982F90958981892306
:100170000F900F900F90DF91CF910895CF93DF9361
:1001800000D0CDB7DEB789836A838A81282F30E01B
:1001900081E090E002C0880F991F2A95E2F7982F1E
:1001A000898189230F900F90DF91CF910895CF938C
:1001B000DF93CDB7DEB72C970FB6F894DEBF0FBE36
:1001C000CDBF6D837E838F83988729873A874B873E
:1001D0005C878D819E81AF81B88529853A854B8565
:1001E0005C85BC01CD010E94EF07DC01CB01898356
:1001F0009A83AB83BC8389819A81AB81BC81892B33
:100200008A2B8B2B29F489859A85AB85BC8511C0F7
:1002100089859A85AB85BC858D839E83AF83B8879E
:1002200089819A81AB81BC8189879A87AB87BC879A
:10023000D0CFBC01CD012C960FB6F894DEBF0FBE17
:10024000CDBFDF91CF910895CF93DF9300D000D041
:10025000CDB7DEB769837A838B839C8389819A814A
:10026000AB81BC8180930E0190930F01A09310018C
:10027000B093110180910E0190910F01A091100196
:10028000B09111018093910190939201A0939301F9
:10029000B093940100000F900F900F900F90DF919A
:1002A000CF910895CF93DF93CDB7DEB781E890E08B
:1002B0002BE0FC01208388E890E02DE730E0FC0192
:1002C000318320838FE690E022E0FC01208384E8E4
:1002D00090E0FC011182108280910E0190910F013B
:1002E000A0911001B091110180939101909392011E
:1002F000A0939301B09394018FE590E02FE530E057
:10030000F90120812068FC0120830000DF91CF915A
:100310000895CF93DF93CDB7DEB781E890E0FC017D
:1003200010820000DF91CF910895CF93DF93CDB776
:10033000DEB781E0809390010000DF91CF910895B6
:100340001F920F9200905F000F92112400905B00AB
:100350000F922F933F934F935F936F937F938F935E
:100360009F93AF93BF93EF93FF93CF93DF93CDB75B
:10037000DEB78091910190919201A0919301B0918B
:1003800094010197A109B109809391019093920181
:10039000A0939301B0939401809191019091920167
:1003A000A0919301B0919401892B8A2B8B2B91F40E
:1003B0000E94950180910E0190910F01A091100172
:1003C000B09111018093910190939201A0939301B8
:1003D000B09394010000DF91CF91FF91EF91BF9115
:1003E000AF919F918F917F916F915F914F913F91CD
:1003F0002F910F9000925B000F9000925F000F9082
:100400001F9018950F931F93CF93DF9300D000D0C8
:10041000CDB7DEB769837A838B839C8380919C01FF
:1004200090919D01A0919E01B0919F019C01AD0111
:1004300069817A818B819C810E941108882309F44B
:1004400066C020E030E0A90169817A818B819C81BE
:100450000E941108882351F481E990E021E930E0FD
:10046000F90120812870FC01208309C081E990E016
:1004700021E930E0F90120812360FC01208328E597
:1004800039E344E75FE369817A818B819C810E9433
:100490001108882344F488E990E02FEF3FEFFC0136
:1004A0003183208334C020E034E244EF56E4698194
:1004B0007A818B819C810E943309181634F488E973
:1004C00090E0FC011182108222C008E910E020E0D7
:1004D00030E040E053E469817A818B819C810E9405
:1004E0003809DC01CB019C01AD0160E074E284EFCE
:1004F0009AE40E941608DC01CB01BC01CD010E94E8
:100500008808DC01CB010197F8019183808300000A
:100510000F900F900F900F90DF91CF911F910F913F
:100520000895CF93DF93CDB7DEB780E990E020E464
:10053000FC01208381E990E02BE0FC01208360E056
:1005400070E0CB010E9402020000DF91CF9108957C
:10055000CF93DF93CDB7DEB780E990E0FC01108246
:1005600081E990E0FC0110820000DF91CF910895B5
:10057000CF93DF93CDB7DEB788E290E02FEEFC019A
:100580002083000086E290E0FC01808160E00E9410
:10059000BE00882311F481E3B8C086E290E0FC013C
:1005A000808161E00E94BE00882311F484E3ADC025
:1005B00086E290E0FC01808162E00E94BE00882318
:1005C00011F487E3A2C086E290E0FC01808163E041
:1005D0000E94BE00882311F48AE297C088E290E06E
:1005E0002FEDFC012083000086E290E0FC01808179
:1005F00060E00E94BE00882311F482E386C086E298
:1006000090E0FC01808161E00E94BE00882311F42B
:1006100085E37BC086E290E0FC01808162E00E947D
:10062000BE00882311F488E370C086E290E0FC01EC
:10063000808163E00E94BE00882311F480E365C0DE
:1006400088E290E02FEBFC012083000086E290E03E
:10065000FC01808160E00E94BE00882311F483E3E6
:1006600054C086E290E0FC01808161E00E94BE00FF
:10067000882311F486E349C086E290E0FC01808182
:1006800062E00E94BE00882311F489E33EC086E246
:1006900090E0FC01808163E00E94BE00882311F499
:1006A00083E233C088E290E02FE7FC012083000062
:1006B00086E290E0FC01808160E00E94BE00882319
:1006C00011F481E422C086E290E0FC01808161E0C7
:1006D0000E94BE00882311F482E417C086E290E0F5
:1006E000FC01808162E00E94BE00882311F483E453
:1006F0000CC086E290E0FC01808163E00E94BE00B5
:10070000882311F484E401C080E0DF91CF91089543
:10071000CF93DF9300D000D0CDB7DEB79C838B831F
:1007200083E290E0FC0180818095807889830E943B
:10073000B8028A838B819C8181309105A1F082303F
:1007400091051CF4892B39F037C082309105F9F0FE
:10075000039759F131C089818823A9F181E090E0A4
:100760009C838B8330C08981882331F41C821B8257
:1007700081E08093950129C08A818A3231F589818F
:10078000882319F182E090E09C838B831EC08A81CC
:100790008823E9F489818823D1F483E090E09C8365
:1007A0008B8381E08093960112C08091960188230B
:1007B00081F41C821B820DC01C821B821092950149
:1007C0001092960107C0000005C0000003C00000A1
:1007D00001C000008B819C810F900F900F900F90B3
:1007E000DF91CF910895CF93DF9300D01F92CDB7C3
:1007F000DEB79B838A830E94B80289838A819B81AA
:1008000082309105A9F1833091052CF4009759F0BD
:100810000197D1F09AC08330910509F479C004970B
:1008200009F489C092C08981833249F4809195018D
:10083000882329F481E090E09B838A8392C0109200
:10084000A1011092A0018DC08981882349F4809173
:100850009501882329F482E090E09B838A837CC001
:1008600080919501882309F477C01B821A8274C095
:100870008091A0019091A1018E5E9E4FFC0190811C
:100880008981981709F5809195018823E9F483E01F
:1008900090E09B838A838091A0019091A1010196B1
:1008A0009093A1018093A0012091A0013091A1011A
:1008B00080911701909118012817390740F184E0C1
:1008C00090E09B838A8323C08981833269F480917D
:1008D0009501882349F481E090E09B838A831092FC
:1008E000A1011092A00113C08981882349F480914D
:1008F0009501882329F482E090E09B838A8307C0D6
:100900001B821A821092A1011092A0012AC029C054
:100910008981882349F480919501882329F482E014
:1009200090E09B838A831AC0809195018823B1F05F
:100930001B821A8213C08981882391F480919501CA
:10094000882371F01B821A820BC01B821A821092BC
:10095000A1011092A00105C0000003C0000001C069
:1009600000008A819B81009719F0049741F00DC027
:1009700085E290E0FC0110821092950106C085E2AC
:1009800090E021E0FC01208300008A819B810F9090
:100990000F900F90DF91CF910895CF93DF9300D008
:1009A0001F92CDB7DEB79B838A8380E290E0FC0183
:1009B00080818095807889838A819B81009719F056
:1009C000019761F013C089818823A9F081E090E04C
:1009D0009B838A8381E0809397010DC010929701D9
:1009E0008981882351F41B821A8207C01B821A82D4
:1009F0001092970103C0000001C000008A819B8112
:100A00000F900F900F90DF91CF910895CF93DF93C8
:100A100000D0CDB7DEB79A83898389819A81009708
:100A200019F0019761F01AC0809197018823E9F0CD
:100A300081E090E09A8389830E94910216C08091A0
:100A4000A2019091A3014B9794F01A8219820E94FF
:100A5000A8021092A3011092A20109C01A82198261
:100A60001092A3011092A20103C0000001C0000077
:100A700089819A81009719F0019721F020C00E9486
:100A8000A8021DC08091A2019091A301880F991F17
:100A9000880F991F875E9E4FFC0180819181A28102
:100AA000B381BC01CD010E9402028091A20190910C
:100AB000A30101969093A3018093A2010000898174
:100AC0009A810F900F90DF91CF910895CF93DF938C
:100AD00000D000D01F92CDB7DEB79D838C830E94DB
:100AE000B8028B838C819D818230910509F442C0CC
:100AF000833091052CF4009779F00197D1F08DC0E7
:100B00008430910509F47CC0843091050CF444C014
:100B1000059709F47DC081C080919601882321F05A
:100B200081E090E09D838C831092A5011092A40136
:100B300082C08091A4019091A501049748F083E0C0
:100B400090E09D838C831092A5011092A4016CC04B
:100B50008B81882309F468C082E090E09D838C83B8
:100B60008091A4019091A50188569E4F2B81FC0194
:100B700020835AC08B81882309F058C08091A4013A
:100B80009091A50101969093A5018093A40181E025
:100B900090E09D838C834AC08091A4019091A5012F
:100BA00088569E4FFC0190818B819817C1F484E098
:100BB00090E09D838C838091A4019091A501019682
:100BC0009093A5018093A4018091A4019091A50127
:100BD000049770F185E090E09D838C8329C08B8120
:100BE000882329F483E090E09D838C8321C01D82BB
:100BF0001C82109296011092A5011092A40118C0B7
:100C00008B818823B9F483E090E09D838C8312C0AC
:100C1000109296011D821C820EC01D821C821092B1
:100C2000A5011092A40107C0000005C0000003C088
:100C3000000001C000008C819D810597F9F41A82A3
:100C4000198211C089819A8188569E4FFC012081AA
:100C500089819A818E5E9E4FFC01208389819A81D1
:100C600001969A83898389819A81049758F384E055
:100C700090E0909318018093170100008C819D8172
:100C80000F900F900F900F900F90DF91CF910895DC
:100C90000F931F93CF93DF93CDB7DEB72F970FB688
:100CA000F894DEBF0FBECDBF8AE0E5E8F1E0DE01DB
:100CB000169601900D928A95E1F785E090E09C836D
:100CC0008B8384E290E0FC01108282E290E02FEFBF
:100CD000FC01208384E290E02FE7FC01208385E281
:100CE00090E020E8FC01208387E290E020EFFC0107
:100CF000208388E290E02FE0FC0120838FEF8D833A
:100D00008D818093A60182E390E0A0E0B0E0809323
:100D1000A7019093A801A093A901B093AA01809183
:100D2000A7019091A801A091A901B091AA01809377
:100D3000AB019093AC01A093AD01B093AE0188E8F4
:100D400093E09093B0018093AF018D818093B101C6
:100D500082E390E0A0E0B0E08093B2019093B30111
:100D6000A093B401B093B5018091B2019091B30109
:100D7000A091B401B091B5018093B6019093B701F1
:100D8000A093B801B093B90183EF93E09093BB01B6
:100D90008093BA018D818093BC0188EC90E0A0E043
:100DA000B0E08093BD019093BE01A093BF01B093CA
:100DB000C0018091BD019091BE01A091BF01B09191
:100DC000C0018093C1019093C201A093C301B0936D
:100DD000C4018DEC94E09093C6018093C5018D8190
:100DE0008093C7018DE790E0A0E0B0E08093C80158
:100DF0009093C901A093CA01B093CB018091C8011F
:100E00009091C901A091CA01B091CB018093CC010E
:100E10009093CD01A093CE01B093CF0186E095E0F1
:100E20009093D1018093D0018D818093D20182E390
:100E300090E0A0E0B0E08093D3019093D401A09320
:100E4000D501B093D6018091D3019091D401A091A6
:100E5000D501B091D6018093D7019093D801A0938A
:100E6000D901B093DA0186E695E09093DC01809396
:100E7000DB0169E170E080E090E00E9424010E94C3
:100E800052011A8219829BC089819A81880F991F09
:100E90009E012F5F3F4F820F931F0596FC018081BB
:100EA0009181FC01258136814781508589819A8114
:100EB000880F991FBE016F5F7F4F860F971F0596A2
:100EC000FC0180819181FC0181819281A381B481A7
:100ED000281739074A075B0709F045C089819A81BD
:100EE000880F991F9E012F5F3F4F820F931F05961A
:100EF000FC010081118189819A81880F991F9E01CF
:100F00002F5F3F4F820F931F0596FC0180819181D7
:100F1000FC012185328589819A81880F991FAE0154
:100F20004F5F5F4F840F951F0596FC018081918173
:100F3000FC018081082E000C990BF9010995F8013C
:100F4000808389819A81880F991F9E012F5F3F4F6F
:100F5000820F931F0596FC0180819181FC0115820F
:100F600016821782108689819A81880F991F9E01A7
:100F70002F5F3F4F820F931F0596FC012081318127
:100F800089819A81880F991FAE014F5F5F4F840F4F
:100F9000951F0596FC0180819181FC0185819681D8
:100FA000A781B0854996A11DB11DF901858396835E
:100FB000A783B08789819A8101969A838983298141
:100FC0003A818B819C812817390708F45DCF000096
:100FD000809190018823E1F31092900152CFA1E219
:100FE0001A2EAA1BBB1BFD010DC0AA1FBB1FEE1FA3
:100FF000FF1FA217B307E407F50720F0A21BB30BEE
:10100000E40BF50B661F771F881F991F1A9469F769
:1010100060957095809590959B01AC01BD01CF01C5
:1010200008950E94BE0808F481E008950E942A08ED
:101030000C94F9080E94F20858F00E94EB0840F066
:1010400029F45F3F29F00C94E20851110C942D090A
:101050000C94E8080E940A0968F39923B1F3552318
:1010600091F3951B550BBB27AA27621773078407BB
:1010700038F09F5F5F4F220F331F441FAA1FA9F351
:1010800035D00E2E3AF0E0E832D091505040E6953F
:10109000001CCAF72BD0FE2F29D0660F771F881FA0
:1010A000BB1F261737074807AB07B0E809F0BB0B93
:1010B000802DBF01FF2793585F4F3AF09E3F5105A7
:1010C00078F00C94E2080C942D095F3FE4F3983E0D
:1010D000D4F3869577956795B795F7959F5FC9F790
:1010E000880F911D9695879597F90895E1E0660F11
:1010F000771F881FBB1F621773078407BA0720F08A
:10110000621B730B840BBA0BEE1F88F7E0950895F2
:101110000E948F086894B1110C942D0908950E94C3
:10112000120988F09F5798F0B92F9927B751B0F05E
:10113000E1F0660F771F881F991F1AF0BA95C9F75B
:1011400014C0B13091F00E942C09B1E008950C94C4
:101150002C09672F782F8827B85F39F0B93FCCF377
:10116000869577956795B395D9F73EF490958095D8
:10117000709561957F4F8F4F9F4F0895990F00088D
:10118000550FAA0BE0E8FEEF16161706E807F90759
:10119000C0F012161306E407F50798F0621B730BF4
:1011A000840B950B39F40A2661F0232B242B252B75
:1011B00021F408950A2609F4A140A6958FEF811D18
:1011C000811D089597F99F6780E870E060E00895B9
:1011D0009FEF80EC089500240A941616170618064F
:1011E0000906089500240A9412161306140605062B
:1011F0000895092E0394000C11F4882352F0BB0FBC
:1012000040F4BF2B11F460FF04C06F5F7F4F8F4F1E
:101210009F4F089557FD9058440F551F59F05F3F59
:1012200071F04795880F97FB991F61F09F3F79F008
:1012300087950895121613061406551FF2CF46958A
:10124000F1DF08C0161617061806991FF1CF86950C
:101250007105610508940895E894BB2766277727F0
:10126000CB0197F908950E94BE0808F48FEF089506
:101270000E944B090C94F9080E94EB0838F00E9478
:10128000F20820F0952311F00C94E2080C94E80881
:1012900011240C942D090E940A0970F3959FC1F343
:1012A000950F50E0551F629FF001729FBB27F00D14
:1012B000B11D639FAA27F00DB11DAA1F649F662769
:1012C000B00DA11D661F829F2227B00DA11D621FB8
:1012D000739FB00DA11D621F839FA00D611D221F72
:1012E000749F3327A00D611D231F849F600D211D56
:1012F000822F762F6A2F11249F5750409AF0F1F0D9
:1013000088234AF0EE0FFF1FBB1F661F771F881F41
:1013100091505040A9F79E3F510580F00C94E2088F
:101320000C942D095F3FE4F3983ED4F386957795AE
:101330006795B795F795E7959F5FC1F7FE2B880FE7
:0E134000911D9695879597F90895F894FFCF23
:10134E000000000200000000670000000000010025
:10135E00000031323334350500A4D0824300000042
:10136E0000A4D08243000000000000C4430000002F
:10137E00000000C443000000000000DC4300000039
:10138E00000000DC43000000000000C44300000029
:10139E0000719DAE4300000000719DAE4300000041
:1013AE0000A4D0A44300000000A4D0A44300000079
:1013BE00007BD49243000000007BD49243000000D7
:1013CE0000A4D08243A601B101BC01C701D2010025
:00000001FF
