:100000000C9446000C9465000C9465000C946500FB
:100010000C9465000C9465000C9465000C946500CC
:100020000C9465000C9465000C9465000C946500BC
:100030000C9465000C94A0010C9465000C94650070
:100040000C9465000C9465000C9465000C9465009C
:100050000C9465000C9465000C9465000C9465008C
:100060000C9465000C9465000C9465000C9465007C
:100070000C9465000C9465000C9465000C9465006C
:100080000C9465000C9465000C94650011241FBE4F
:10009000CFEFD0E4DEBFCDBF11E0A0E0B1E0EEECE9
:1000A000F0E100E00BBF02C007900D92AC38B10741
:1000B000D9F721E0ACE8B1E001C01D92A73CB2073E
:1000C000E1F70E942D050C9465080C940000CF9375
:1000D000DF9300D01F92CDB7DEB789837B836A831D
:1000E00089818A3031F48A819B81BC018DE00E9434
:1000F000670080EC90E0FC018081882F90E08072A6
:100100009927892BB1F386EC90E02981FC012083AB
:1001100080E090E00F900F900F90DF91CF910895C5
:10012000CF93DF9300D01F92CDB7DEB789836A8368
:100130004B838B81882371F08A81282F30E081E006
:1001400090E002C0880F991F2A95E2F7982F8981C5
:10015000892B0EC08A81282F30E081E090E002C018
:10016000880F991F2A95E2F7982F90958981892306
:100170000F900F900F90DF91CF910895CF93DF9361
:1001800000D0CDB7DEB789836A838A81282F30E01B
:1001900081E090E002C0880F991F2A95E2F7982F1E
:1001A000898189230F900F90DF91CF910895CF938C
:1001B000DF93CDB7DEB72C970FB6F894DEBF0FBE36
:1001C000CDBF6D837E838F83988729873A874B873E
:1001D0005C878D819E81AF81B88529853A854B8565
:1001E0005C85BC01CD010E94AF06DC01CB01898397
:1001F0009A83AB83BC8389819A81AB81BC81892B33
:100200008A2B8B2B29F489859A85AB85BC8511C0F7
:1002100089859A85AB85BC858D839E83AF83B8879E
:1002200089819A81AB81BC8189879A87AB87BC879A
:10023000D0CFBC01CD012C960FB6F894DEBF0FBE17
:10024000CDBFDF91CF910895CF93DF9300D000D041
:10025000CDB7DEB769837A838B839C8389819A814A
:10026000AB81BC8180930E0190930F01A09310018C
:10027000B093110180910E0190910F01A091100196
:10028000B091110180938D0190938E01A0938F0105
:10029000B093900100000F900F900F900F90DF919E
:1002A000CF910895CF93DF93CDB7DEB781E890E08B
:1002B0002BE0FC01208388E890E02DE730E0FC0192
:1002C000318320838FE690E022E0FC01208384E8E4
:1002D00090E0FC011182108280910E0190910F013B
:1002E000A0911001B091110180938D0190938E0126
:1002F000A0938F01B09390018FE590E02FE530E05F
:10030000F90120812068FC0120830000DF91CF915A
:100310000895CF93DF93CDB7DEB781E890E0FC017D
:1003200010820000DF91CF910895CF93DF93CDB776
:10033000DEB781E080938C010000DF91CF910895BA
:100340001F920F9200905F000F92112400905B00AB
:100350000F922F933F934F935F936F937F938F935E
:100360009F93AF93BF93EF93FF93CF93DF93CDB75B
:10037000DEB780918D0190918E01A0918F01B09197
:1003800090010197A109B10980938D0190938E018D
:10039000A0938F01B093900180918D0190918E0177
:1003A000A0918F01B0919001892B8A2B8B2B91F416
:1003B0000E94950180910E0190910F01A091100172
:1003C000B091110180938D0190938E01A0938F01C4
:1003D000B09390010000DF91CF91FF91EF91BF9119
:1003E000AF919F918F917F916F915F914F913F91CD
:1003F0002F910F9000925B000F9000925F000F9082
:100400001F9018950F931F93CF93DF9300D000D0C8
:10041000CDB7DEB769837A838B839C838091930108
:1004200090919401A0919501B09196019C01AD012C
:1004300069817A818B819C810E94D106882309F48D
:1004400066C020E030E0A90169817A818B819C81BE
:100450000E94D106882351F481E990E021E930E03F
:10046000F90120812870FC01208309C081E990E016
:1004700021E930E0F90120812360FC01208328E597
:1004800039E344E75FE369817A818B819C810E9433
:10049000D106882344F488E990E02FEF3FEFFC0178
:1004A0003183208334C020E034E244EF56E4698194
:1004B0007A818B819C810E94F307181634F488E9B5
:1004C00090E0FC011182108222C008E910E020E0D7
:1004D00030E040E053E469817A818B819C810E9405
:1004E000F807DC01CB019C01AD0160E074E284EF10
:1004F0009AE40E94D606DC01CB01BC01CD010E942A
:100500004807DC01CB010197F8019183808300004B
:100510000F900F900F900F90DF91CF911F910F913F
:100520000895CF93DF93CDB7DEB780E990E020E464
:10053000FC01208381E990E02BE0FC01208360E056
:1005400070E0CB010E9402020000DF91CF9108957C
:10055000CF93DF93CDB7DEB780E990E0FC01108246
:1005600081E990E0FC0110820000DF91CF910895B5
:10057000CF93DF93CDB7DEB788E290E02FEEFC019A
:100580002083000086E290E0FC01808160E00E9410
:10059000BE00882311F481E3B8C086E290E0FC013C
:1005A000808161E00E94BE00882311F484E3ADC025
:1005B00086E290E0FC01808162E00E94BE00882318
:1005C00011F487E3A2C086E290E0FC01808163E041
:1005D0000E94BE00882311F48AE297C088E290E06E
:1005E0002FEDFC012083000086E290E0FC01808179
:1005F00060E00E94BE00882311F482E386C086E298
:1006000090E0FC01808161E00E94BE00882311F42B
:1006100085E37BC086E290E0FC01808162E00E947D
:10062000BE00882311F488E370C086E290E0FC01EC
:10063000808163E00E94BE00882311F480E365C0DE
:1006400088E290E02FEBFC012083000086E290E03E
:10065000FC01808160E00E94BE00882311F483E3E6
:1006600054C086E290E0FC01808161E00E94BE00FF
:10067000882311F486E349C086E290E0FC01808182
:1006800062E00E94BE00882311F489E33EC086E246
:1006900090E0FC01808163E00E94BE00882311F499
:1006A00083E233C088E290E02FE7FC012083000062
:1006B00086E290E0FC01808160E00E94BE00882319
:1006C00011F481E422C086E290E0FC01808161E0C7
:1006D0000E94BE00882311F482E417C086E290E0F5
:1006E000FC01808162E00E94BE00882311F483E453
:1006F0000CC086E290E0FC01808163E00E94BE00B5
:10070000882311F484E401C080E0DF91CF91089543
:10071000CF93DF9300D01F92CDB7DEB79B838A8340
:1007200083E290E0FC0180818095807889838A81D2
:100730009B81009719F0019761F011C0898188238E
:1007400099F081E090E09B838A8381E0809391011E
:100750000BC08981882351F41B821A8207C01B8237
:100760001A821092910103C0000001C000008A812A
:100770009B810F900F900F90DF91CF910895CF93B1
:10078000DF9300D01F92CDB7DEB79B838A830E9490
:10079000B80289838A819B8182309105A9F18330D7
:1007A00091052CF4009759F00197D1F095C0833052
:1007B000910509F474C0049709F484C08DC089813F
:1007C000833249F480919101882329F481E090E0FB
:1007D0009B838A838DC0109298011092970188C0E4
:1007E0008981882349F480919101882329F482E04A
:1007F00090E09B838A8377C080919101882309F4DC
:1008000072C01B821A826FC08091970190919801EB
:100810008E5E9E4FFC01908189819817E1F4809152
:1008200091018823C1F483E090E09B838A838091C7
:100830009701909198010196909398018093970168
:100840008091970190919801059740F184E090E0A4
:100850009B838A8323C08981833269F480919101CB
:10086000882349F481E090E09B838A831092980169
:100870001092970113C08981882349F480919101D6
:10088000882329F482E090E09B838A8307C01B823F
:100890001A8210929801109297012AC029C089816A
:1008A000882349F480919101882329F482E090E023
:1008B0009B838A831AC0809191018823B1F01B82A7
:1008C0001A8213C08981882391F480919101882331
:1008D00071F01B821A820BC01B821A82109298013F
:1008E0001092970105C0000003C0000001C0000085
:1008F0008A819B81009719F0049741F00DC085E231
:1009000090E0FC0110821092910106C085E290E017
:1009100021E0FC01208300008A819B810F900F90D1
:100920000F90DF91CF910895CF93DF9300D01F9266
:10093000CDB7DEB79B838A8380E290E0FC018081A3
:100940008095807889838A819B81009719F001972F
:1009500061F013C089818823A9F081E090E09B8336
:100960008A8381E0809392010DC010929201898167
:10097000882351F41B821A8207C01B821A821092AC
:10098000920103C0000001C000008A819B810F908A
:100990000F900F90DF91CF910895CF93DF9300D008
:1009A000CDB7DEB79A83898389819A81009719F040
:1009B000019761F01AC0809192018823E9F081E0EB
:1009C00090E09A8389830E94910216C080919901D8
:1009D00090919A01499794F01A8219820E94A80274
:1009E00010929A011092990109C01A8219821092EC
:1009F0009A011092990103C0000001C00000898192
:100A00009A81009719F0019721F020C00E94A80256
:100A10001DC08091990190919A01880F991F880FAC
:100A2000991F895E9E4FFC0180819181A281B381D3
:100A3000BC01CD010E9402028091990190919A011E
:100A4000019690939A0180939901000089819A817F
:100A50000F900F90DF91CF9108950F931F93CF9335
:100A6000DF93CDB7DEB72D970FB6F894DEBF0FBE7C
:100A7000CDBF88E0E3E8F1E0DE01169601900D922B
:100A80008A95E1F784E090E09C838B8384E290E098
:100A9000FC01108282E290E02FEFFC01208384E2CF
:100AA00090E02FE7FC01208385E290E020E8FC0144
:100AB000208387E290E020EFFC01208388E290E031
:100AC0002FE0FC0120838FEF8D838D8180939B012C
:100AD00082E390E0A0E0B0E080939C0190939D01C0
:100AE000A0939E01B0939F0180919C0190919D01E4
:100AF000A0919E01B0919F018093A0019093A101CC
:100B0000A093A201B093A30188E893E09093A5017C
:100B10008093A4018D818093A60182E390E0A0E000
:100B2000B0E08093A7019093A801A093A901B0938E
:100B3000AA018091A7019091A801A091A901B0916B
:100B4000AA018093AB019093AC01A093AD01B09347
:100B5000AE018FEB93E09093B0018093AF018D8154
:100B60008093B10188EC90E0A0E0B0E08093B20106
:100B70009093B301A093B401B093B5018091B201F9
:100B80009091B301A091B401B091B5018093B601E9
:100B90009093B701A093B801B093B90184E994E0B0
:100BA0009093BB018093BA018D818093BC018DE746
:100BB00090E0A0E0B0E08093BD019093BE01A093CF
:100BC000BF01B093C0018091BD019091BE01A09181
:100BD000BF01B091C0018093C1019093C201A09365
:100BE000C301B093C4018DEC94E09093C60180934F
:100BF000C50169E170E080E090E00E9424010E945C
:100C000052011A8219829BC089819A81880F991F8B
:100C10009E012F5F3F4F820F931F0596FC0180813D
:100C20009181FC01258136814781508589819A8196
:100C3000880F991FBE016F5F7F4F860F971F059624
:100C4000FC0180819181FC0181819281A381B48129
:100C5000281739074A075B0709F045C089819A813F
:100C6000880F991F9E012F5F3F4F820F931F05969C
:100C7000FC010081118189819A81880F991F9E0151
:100C80002F5F3F4F820F931F0596FC01808191815A
:100C9000FC012185328589819A81880F991FAE01D7
:100CA0004F5F5F4F840F951F0596FC0180819181F6
:100CB000FC018081082E000C990BF9010995F801BF
:100CC000808389819A81880F991F9E012F5F3F4FF2
:100CD000820F931F0596FC0180819181FC01158292
:100CE00016821782108689819A81880F991F9E012A
:100CF0002F5F3F4F820F931F0596FC0120813181AA
:100D000089819A81880F991FAE014F5F5F4F840FD1
:100D1000951F0596FC0180819181FC01858196815A
:100D2000A781B0854996A11DB11DF90185839683E0
:100D3000A783B08789819A8101969A8389832981C3
:100D40003A818B819C812817390708F45DCF000018
:100D500080918C018823E1F310928C0152CFA1E2A3
:100D60001A2EAA1BBB1BFD010DC0AA1FBB1FEE1F25
:100D7000FF1FA217B307E407F50720F0A21BB30B70
:100D8000E40BF50B661F771F881F991F1A9469F7EC
:100D900060957095809590959B01AC01BD01CF0148
:100DA00008950E947E0708F481E008950E94EA06F3
:100DB0000C94B9070E94B20758F00E94AB0740F0AC
:100DC00029F45F3F29F00C94A20751110C94ED0710
:100DD0000C94A8070E94CA0768F39923B1F355231E
:100DE00091F3951B550BBB27AA276217730784073E
:100DF00038F09F5F5F4F220F331F441FAA1FA9F3D4
:100E000035D00E2E3AF0E0E832D091505040E695C1
:100E1000001CCAF72BD0FE2F29D0660F771F881F22
:100E2000BB1F261737074807AB07B0E809F0BB0B15
:100E3000802DBF01FF2793585F4F3AF09E3F510529
:100E400078F00C94A2070C94ED075F3FE4F3983E12
:100E5000D4F3869577956795B795F7959F5FC9F712
:100E6000880F911D9695879597F90895E1E0660F93
:100E7000771F881FBB1F621773078407BA0720F00C
:100E8000621B730B840BBA0BEE1F88F7E095089575
:100E90000E944F076894B1110C94ED0708950E94C9
:100EA000D20788F09F5798F0B92F9927B751B0F023
:100EB000E1F0660F771F881F991F1AF0BA95C9F7DE
:100EC00014C0B13091F00E94EC07B1E008950C9489
:100ED000EC07672F782F8827B85F39F0B93FCCF33C
:100EE000869577956795B395D9F73EF4909580955B
:100EF000709561957F4F8F4F9F4F0895990F000810
:100F0000550FAA0BE0E8FEEF16161706E807F907DB
:100F1000C0F012161306E407F50798F0621B730B76
:100F2000840B950B39F40A2661F0232B242B252BF7
:100F300021F408950A2609F4A140A6958FEF811D9A
:100F4000811D089597F99F6780E870E060E008953B
:100F50009FEF80EC089500240A94161617061806D1
:100F60000906089500240A941216130614060506AD
:100F70000895092E0394000C11F4882352F0BB0F3E
:100F800040F4BF2B11F460FF04C06F5F7F4F8F4FA1
:100F90009F4F089557FD9058440F551F59F05F3FDC
:100FA00071F04795880F97FB991F61F09F3F79F08B
:100FB00087950895121613061406551FF2CF46950D
:100FC000F1DF08C0161617061806991FF1CF86958F
:100FD0007105610508940895E894BB276627772773
:100FE000CB0197F908950E947E0708F48FEF0895CA
:100FF0000E940B080C94B9070E94AB0738F00E94BE
:10100000B20720F0952311F00C94A2070C94A807C6
:1010100011240C94ED070E94CA0770F3959FC1F349
:10102000950F50E0551F629FF001729FBB27F00D96
:10103000B11D639FAA27F00DB11DAA1F649F6627EB
:10104000B00DA11D661F829F2227B00DA11D621F3A
:10105000739FB00DA11D621F839FA00D611D221FF4
:10106000749F3327A00D611D231F849F600D211DD8
:10107000822F762F6A2F11249F5750409AF0F1F05B
:1010800088234AF0EE0FFF1FBB1F661F771F881FC4
:1010900091505040A9F79E3F510580F00C94A20753
:1010A0000C94ED075F3FE4F3983ED4F38695779573
:1010B0006795B795F795E7959F5FC1F7FE2B880F6A
:0E10C000911D9695879597F90895F894FFCFA6
:1010CE0000000002000000006700000000000100A8
:1010DE0000003132333435A4D0824300000000A426
:1010EE00D08243000000000000C443000000000056
:1010FE0000C443000000000000DC430000000000BC
:10110E0000DC43000000000000C44300000000713A
:10111E009DAE4300000000719DAE4300000000A490
:10112E00D0A44300000000A4D0A443000000007B24
:10113E00D49243000000007BD4924300000000A430
:0C114E00D082439B01A601B101BC01004E
:00000001FF
