:100000000C9446000C9465000C9465000C946500FB
:100010000C9465000C9465000C9465000C946500CC
:100020000C9465000C9465000C9465000C946500BC
:100030000C9465000C94A0010C9465000C94650070
:100040000C9465000C9465000C9465000C9465009C
:100050000C9465000C9465000C9465000C9465008C
:100060000C9465000C9465000C9465000C9465007C
:100070000C9465000C9465000C9465000C9465006C
:100080000C9465000C9465000C94650011241FBE4F
:10009000CFEFD0E4DEBFCDBF11E0A0E0B1E0E0E6FD
:1000A000FAE000E00BBF02C007900D92A831B10743
:1000B000D9F721E0A8E1B1E001C01D92AA33B2074F
:1000C000E1F70E94DE030C942E050C940000CF9300
:1000D000DF9300D01F92CDB7DEB789837B836A831D
:1000E00089818A3031F48A819B81BC018DE00E9434
:1000F000670080EC90E0FC018081882F90E08072A6
:100100009927892BB1F386EC90E02981FC012083AB
:1001100080E090E00F900F900F90DF91CF910895C5
:10012000CF93DF9300D01F92CDB7DEB789836A8368
:100130004B838B81882371F08A81282F30E081E006
:1001400090E002C0880F991F2A95E2F7982F8981C5
:10015000892B0EC08A81282F30E081E090E002C018
:10016000880F991F2A95E2F7982F90958981892306
:100170000F900F900F90DF91CF910895CF93DF9361
:1001800000D0CDB7DEB789836A838A81282F30E01B
:1001900081E090E002C0880F991F2A95E2F7982F1E
:1001A000898189230F900F90DF91CF910895CF938C
:1001B000DF93CDB7DEB72C970FB6F894DEBF0FBE36
:1001C000CDBF6D837E838F83988729873A874B873E
:1001D0005C878D819E81AF81B88529853A854B8565
:1001E0005C85BC01CD010E940C05DC01CB0189833B
:1001F0009A83AB83BC8389819A81AB81BC81892B33
:100200008A2B8B2B29F489859A85AB85BC8511C0F7
:1002100089859A85AB85BC858D839E83AF83B8879E
:1002200089819A81AB81BC8189879A87AB87BC879A
:10023000D0CFBC01CD012C960FB6F894DEBF0FBE17
:10024000CDBFDF91CF910895CF93DF9300D000D041
:10025000CDB7DEB769837A838B839C8389819A814A
:10026000AB81BC8180930E0190930F01A09310018C
:10027000B093110180910E0190910F01A091100196
:10028000B09111018093190190931A01A0931B0161
:10029000B0931C0100000F900F900F900F90DF9112
:1002A000CF910895CF93DF93CDB7DEB781E890E08B
:1002B0002BE0FC01208388E890E02DE730E0FC0192
:1002C000318320838FE690E022E0FC01208384E8E4
:1002D00090E0FC011182108280910E0190910F013B
:1002E000A0911001B09111018093190190931A010E
:1002F000A0931B01B0931C018FE590E02FE530E047
:10030000F90120812068FC0120830000DF91CF915A
:100310000895CF93DF93CDB7DEB781E890E0FC017D
:1003200010820000DF91CF910895CF93DF93CDB776
:10033000DEB781E0809318010000DF91CF9108952E
:100340001F920F9200905F000F92112400905B00AB
:100350000F922F933F934F935F936F937F938F935E
:100360009F93AF93BF93EF93FF93CF93DF93CDB75B
:10037000DEB78091190190911A01A0911B01B091F3
:100380001C010197A109B1098093190190931A01E9
:10039000A0931B01B0931C018091190190911A0147
:1003A000A0911B01B0911C01892B8A2B8B2B91F4FE
:1003B0000E94950180910E0190910F01A091100172
:1003C000B09111018093190190931A01A0931B0120
:1003D000B0931C010000DF91CF91FF91EF91BF918D
:1003E000AF919F918F917F916F915F914F913F91CD
:1003F0002F910F9000925B000F9000925F000F9082
:100400001F901895CF93DF93CDB7DEB788E290E0C9
:100410002FEEFC012083000086E290E0FC01808149
:1004200060E00E94BE00882311F481E3B8C086E238
:1004300090E0FC01808161E00E94BE00882311F4FD
:1004400084E3ADC086E290E0FC01808162E00E941E
:10045000BE00882311F487E3A2C086E290E0FC018D
:10046000808163E00E94BE00882311F48AE297C075
:1004700088E290E02FEDFC012083000086E290E00E
:10048000FC01808160E00E94BE00882311F482E3B9
:1004900086C086E290E0FC01808161E00E94BE009F
:1004A000882311F485E37BC086E290E0FC01808123
:1004B00062E00E94BE00882311F488E370C086E2E7
:1004C00090E0FC01808163E00E94BE00882311F46B
:1004D00080E365C088E290E02FEBFC012083000000
:1004E00086E290E0FC01808160E00E94BE008823EB
:1004F00011F483E354C086E290E0FC01808161E066
:100500000E94BE00882311F486E349C086E290E091
:10051000FC01808162E00E94BE00882311F489E31F
:100520003EC086E290E0FC01808163E00E94BE0054
:10053000882311F483E233C088E290E02FE7FC01C6
:100540002083000086E290E0FC01808160E00E9450
:10055000BE00882311F481E422C086E290E0FC0111
:10056000808161E00E94BE00882311F482E417C0FC
:1005700086E290E0FC01808162E00E94BE00882358
:1005800011F483E40CC086E290E0FC01808163E01A
:100590000E94BE00882311F484E401C080E0DF9152
:1005A000CF910895CF93DF9300D01F92CDB7DEB7E0
:1005B0009B838A8383E290E0FC0180818095807830
:1005C00089838A819B81009719F0019761F011C09E
:1005D0008981882399F081E090E09B838A8381E080
:1005E00080931D010BC08981882351F41B821A82DC
:1005F00007C01B821A8210921D0103C0000001C0B7
:1006000000008A819B810F900F900F90DF91CF9116
:100610000895CF93DF9300D01F92CDB7DEB79B83B1
:100620008A830E94020289838A819B81823091059C
:10063000A9F1833091052CF4009759F00197D1F07E
:1006400095C08330910509F474C0049709F484C0FF
:100650008DC08981833249F480911D01882329F45A
:1006600081E090E09B838A838DC010921F011092DD
:100670001E0188C08981882349F480911D01882347
:1006800029F482E090E09B838A8377C080911D01EA
:10069000882309F472C01B821A826FC080911E01E8
:1006A00090911F018E5E9E4FFC0190818981981769
:1006B000E1F480911D018823C1F483E090E09B83E5
:1006C0008A8380911E0190911F01019690931F01D2
:1006D00080931E0180911E0190911F01059740F1AA
:1006E00084E090E09B838A8323C08981833269F40C
:1006F00080911D01882349F481E090E09B838A83E7
:1007000010921F0110921E0113C08981882349F4A1
:1007100080911D01882329F482E090E09B838A83E5
:1007200007C01B821A8210921F0110921E012AC05C
:1007300029C08981882349F480911D01882329F4E7
:1007400082E090E09B838A831AC080911D018823F8
:10075000B1F01B821A8213C08981882391F48091A1
:100760001D01882371F01B821A820BC01B821A8222
:1007700010921F0110921E0105C0000003C000006E
:1007800001C000008A819B81009719F0049741F015
:100790000DC085E290E0FC01108210921D0106C0A0
:1007A00085E290E021E0FC01208300008A819B81AA
:1007B0000F900F900F90DF91CF9108950F931F939B
:1007C000CF93DF93CDB7DEB729970FB6F894DEBF8E
:1007D0000FBECDBF80E291E09F838E838BE291E0DC
:1007E0009987888782E090E09C838B8384E290E005
:1007F0002FE0FC01208385E290E020EFFC012083C4
:1008000087E290E020EFFC01208388E290E02FE077
:10081000FC0120838FEF8D838D818093200182E303
:1008200090E0A0E0B0E08093210190932201A0939A
:100830002301B09324018091210190912201A09184
:100840002301B09124018093250190932601A09368
:100850002701B093280182ED92E090932A018093C2
:1008600029018D8180932B0182E390E0A0E0B0E02C
:1008700080932C0190932D01A0932E01B0932F0112
:1008800080912C0190912D01A0912E01B0912F010A
:100890008093300190933101A0933201B0933301E2
:1008A00089E093E0909335018093340162E370E036
:1008B00080E090E00E9424010E9452011A82198275
:1008C0009BC089819A81880F991F9E012F5F3F4F9E
:1008D000820F931F0596FC0180819181FC01258187
:1008E00036814781508589819A81880F991FBE0181
:1008F0006F5F7F4F860F971F0596FC018081918166
:10090000FC0181819281A381B481281739074A07AC
:100910005B0709F045C089819A81880F991F9E0164
:100920002F5F3F4F820F931F0596FC0100811181BD
:1009300089819A81880F991F9E012F5F3F4F820FF7
:10094000931F0596FC0180819181FC0121853285F0
:1009500089819A81880F991FAE014F5F5F4F840F85
:10096000951F0596FC0180819181FC018081082EF4
:10097000000C990BF9010995F801808389819A810E
:10098000880F991F9E012F5F3F4F820F931F05967F
:10099000FC0180819181FC011582168217821086EC
:1009A00089819A81880F991F9E012F5F3F4F820F87
:1009B000931F0596FC012081318189819A81880FDE
:1009C000991FAE014F5F5F4F840F951F0596FC0185
:1009D00080819181FC0185819681A781B085C29635
:1009E000A11DB11DF90185839683A783B0878981F5
:1009F0009A8101969A83898329813A818B819C818E
:100A00002817390708F45DCF00008091180188236A
:100A1000E1F31092180152CFA1E21A2EAA1BBB1BC0
:100A2000FD010DC0AA1FBB1FEE1FFF1FA217B307BA
:100A3000E407F50720F0A21BB30BE40BF50B661FD0
:100A4000771F881F991F1A9469F760957095809594
:100A500090959B01AC01BD01CF010895F894FFCFA3
:100A6000000000020000000067000000000001001C
:080A700000003132333435007F
:00000001FF
